S01500004D474D3131315F537769746368342E73333766
S31500004000E0190020B53E0100EDC90000F1C900002D
S31500004010A70A0A010041000004180FAC3062CC0068
S31500004020000000000000000000000000000000008A
S3150000403000000000D049030000000000000000005E
S315000040400000000000000000FFFFFFFFFFFFFFFF72
S31500004050FFFFFFFF00E00300000000000000040077
S31500004060FFFFFFFFFFFFFFFF100000000000000042
S31500004070000000000000000000000000000000003A
S31500004080BC3E0020BC3E0020BC3E0020BC3E0020C2
S31500004090E01900205276030072030300801000200E
S311000040A05C10002000000400BC3E002064
S31500004100E0190020B53E0100EDC90000F1C900002C
S31500004110F9C90000F5C90000FDC9000078CA000011
S3150000412078CA000078CA000078CA000078CA000081
S3150000413001CA000078CA000078CA0000F7410100F1
S3150000414089E00000DDF6020005CC000089F20200DD
S3150000415049F70200E9F6020001F70200E1F6020063
S315000041602DD80000F9D80000DDF10000513701001C
S3150000417078CA000078CA0000EDB1000078CA0000D5
S3150000418078CA00001DD9000078CA000078CA00006D
S3150000419078CA000078CA000078CA000078CA000011
S315000041A078CA000078CA000078CA00004DF70200FD
S315000041B0E5F6020001DE00008DF7020078CA000075
S315000041C071E2020078CA000078CA000078CA0000CE
S315000041D078CA000078CA000078CA000078CA0000D1
S315000041E0F0B5284B284E85B000251D7000F084FFE1
S315000041F00228074630D102F0E7FB36780124062E66
S3150000420004710AD12046214903F0FCFF20463146BD
S315000042103A461F4B02F064FB13E0072E11D11D49ED
S31500004220204603F0EFFF04F035FB1423C0B20090E4
S31500004230019302950395204608212A46164B02F063
S315000042404FFB02F08DFB1549154A0346012005B0C8
S31500004250BDE8F04003F0D6BF34780EF0CDFD114B2B
S31500004260114A0090072C18BF1A461049104B01201E
S3150000427003F0C8FF0F4818F035FB0F4B01221A70E8
S3150000428005B0F0BD342B0020971F002077050300F2
S315000042903555030080050300890503003E500300E1
S315000042A08E05030072050300680503009F050300E1
S315000042B0C55103003C2B0020961F002038B50F4B3C
S315000042C00F4C1B780025257093B100F015FF0228CE
S315000042D009D0284608F0D4FB20464FF47A61BDE8A1
S315000042E0384018F00BBB0020BDE8384008F0C6BBCC
S315000042F000F002FF0228F6D038BD00BF961F00204E
S315000043003C2B002010B5074B002201201A700CF040
S3150000431099FE0549054A0346BDE81040012003F011
S3150000432071BF00BF2C2B0020B3050300C55103004D
S31500004330912808B503D1002008F0A1FB04E09028DD
S3150000434002D1002008F09AFB002008BD21B9034BDA
S315000043501870034818F0C6BA704700BF971F0020B0
S31500004360342B002013B50B4A009004460A490B4B28
S31500004370012003F047FF24B1094B00221A7002B056
S3150000438010BD084840F6B83102B0BDE8104018F03C
S31500004390B5BA00BF720503009F0503008F4E0300E8
S315000043A0961F00202C2B002008B5054A0549034618
S315000043B0012003F027FF044B00221A7008BD00BF3E
S315000043C08F4E0300B3050300961F002008B5012099
S315000043D003F002FB044B00221A7001200DF052FB81
S315000043E0BDE8084003F0E7BA442B002008B50120D9
S315000043F018F09AFB024818F013FB024B187008BD20
S31500004400500703004C2B002008B503F0FFF80128E5
S3150000441005D0034B1878BDE8084018F0E9BA08BD86
S315000044204C2B002010B50C1E02D118F05BFA02E0EE
S3150000443003DB18F063FA002010BD022010BDB1F5B1
S31500004440000F02D20902FFF7EDBF022070470000FD
S315000044502DE9F0419846144B1B880026F5B29D4283
S315000044600FD20C24114F65437C197D5D85420BD11B
S3150000447065888D4208D12579954205D101F0ACFABF
S3150000448020B90220BDE8F0810136E7E7A068414681
S31500004490FFF7C8FF0028F4D19DF8183063719DF826
S315000044A01C30A371BDE8F081201A0020141A0020E8
S315000044B013B5144600939DF810300193002223464D
S315000044C0FFF7C6FF02B010BD07B500230093FFF744
S315000044D0EFFF03B05DF804FB0D4BF0B51F88002419
S315000044E0E5B2BD4212D20C230A4E6B43F518F35CBB
S315000044F0834209D16B888B4206D12B79934203D133
S31500004500AB6800201870F0BD0134E9E70220F0BD69
S31500004510201A0020141A00200022FFF7DDBF000039
S315000045202DE9F04F1E4693B0FF23022E80468946A2
S3150000453014461C9F9DF874A08DF81E3040F2AE8084
S315000045403B785A0705D5042E40F2A88097F804B0A8
S3150000455001E097F802B00023564A02EBC302DDB22F
S315000045601279FF2A04D001330A2BF5D19AE0FF25F0
S3150000457012A9002301F8293D207908AA02F048F87B
S3150000458050B1BDF82C3023809DF81F0003F00CFAC3
S315000045908DF81D0098B18AE0207901F031FAFF28E4
S315000045A07ED00590207903F017FA8DF81D000028BB
S315000045B07DD1059B404800EB03104388238061882A
S315000045C023884FF6FF72B8F1000F08BF4A468DE800
S315000045D0060058460021524605F04CF818B1E3880B
S315000045E043F02003E380209B0D930DA80DF11D01E0
S315000045F00E940F97ADF84090ADF842608DF8448068
S315000046008DF845A002F033F8002844D140464946CB
S31500004610224605F04BF980B2864214D80DF11E03EE
S315000046200193BDF8783002939DF87C300393009790
S31500004630F3B240464946224600F0DFFE209B8DF845
S315000046401D0023B912E074238DF81D300EE068B901
S315000046509DF81E20FF2A09D0092D9FBF154B03EB9D
S31500004660C5010A71209A98BF43F835209DF81D3080
S31500004670BA2B08D1E388DB0605D5002301208DF887
S315000046801D3002F0C9FF9DF81D3013B9112001F04D
S315000046909BFF03F090F99DF81D0008E0012006E05D
S315000046A0A32004E0209B002B3FF461AFB42013B09D
S315000046B0BDE8F08F981F0020102C00200023054A2B
S315000046C0D118FF200871002199500833502BF6D1DC
S315000046D0704700BF981F002070B586B00C46009347
S315000046E001230193002305461646029303930A9B72
S315000046F0208104932946224633460320FFF710FF04
S3150000470006B070BD13B500240094FFF7E5FF02B0B4
S3150000471010BDF0B50D4685B01646044658B351B3E4
S315000047204AB30027F8B2694625F0A4FB20BB9DF8E2
S315000047300030032B1AD19DF8012023799A4215D116
S31500004740BDF8022063889A4210D19DF805309DF885
S31500004750060003EB002080B29DF8043063712081CF
S3150000476021462A463346FFF7CDFF28B901370A2FDF
S31500004770D8D1002000E0022005B0F0BD70B586B0AB
S31500004780064600930123019300230D461446029327
S3150000479003930A9B049331462A4623460620FFF7D5
S315000047A0BFFE06B070BD13B500240094FFF7E6FF08
S315000047B002B010BDF0B502288BB006460D46144671
S315000047C01F460AD1C8B206A925F054FB98B99DF830
S315000047D0193023719DF81C306371109B00930022E1
S315000047E0119B019202920392049330462946224677
S315000047F03B46FFF795FE0BB0F0BD13B5049C009445
S3150000480000240194FFF7D6FF02B010BD2DE9F04356
S3150000481006468BB00F46904699460025E8B206A993
S3150000482025F028FB044618BB9DF81830012B1AD139
S315000048309DF8192033799A4215D1BDF81A2073884C
S315000048409A4210D19DF81C3073710190029003902A
S31500004850CDF80080CDF810900220A9B232463B4632
S31500004860FFF75EFE18B901350A2DD7D100E00446E0
S3150000487020460BB0BDE8F083F0B587B00746144676
S315000048800E466846002116221D4602F0D9FFADF8F5
S315000048900C70ADF80A406EB10DF1010031460822E8
S315000048A002F074FFBDF8143043F00203ADF8143083
S315000048B0002303E02DB1ADF812500C238DF8003023
S315000048C007E04FF6FB739C428CBF082400248DF84A
S315000048D00040BDF83430ADF80E306846BDF83030D3
S315000048E0BDF838100F9AADF810300DF009FC07B07E
S315000048F0F0BD000007B5094A0346108831B90849DA
S31500004900084A03B05DF804EB03F09ABC0091064A2E
S31500004910064903F095FC03B05DF804FB86200020F1
S31500004920D507030058370300FC370300DC070300F4
S315000049307FB505460E4619F0E7FB04460D490420EF
S315000049402A46234603F05EFC8CB986B101238DF816
S315000049500E300323009322464FF6FC70362103AB3C
S315000049608DF80C408DF80D5006F0ECFB0446204601
S3150000497004B070BDE9070300FF2810B50C4604D14A
S315000049800420044903F03EFCFE202146BDE8104009
S31500004990FFF7CEBF00080300F8B51F460B88064692
S315000049A00D461446002B69D14A88110448BF637826
S315000049B03449082003F026FC6B8848F2040293422F
S315000049C01CD00ED848F20102934223D048F20202CC
S315000049D0934228D0132B33D16378A2782A49082032
S315000049E02AE048F2060293420CD018D348F220027D
S315000049F0934225D10820254962781FE008202449E2
S31500004A00244A1BE008202249234A03F019FC082007
S31500004A10224906E00820224903F0F4FB10E0214970
S31500004A20082022790AE0082019491F4A03F008FCE9
S31500004A306378A2781D49082003EB022203F0E2FB0B
S31500004A403046294622463B4600F00BFE70B9224608
S31500004A503B46304629460FF027F96A8848F221037B
S31500004A609A4203D13046617801F0DCFD6B88B3F5DC
S31500004A70004F05D9082001F00BFE01E00020F8BD2B
S31500004A800120F8BD3B080300B10803008C080300B1
S31500004A906008030071080300780803007E0803001D
S31500004AA0C8080300E208030004090300090903001B
S31500004AB02DE9F04788B00C4692469946BDF840501D
S31500004AC0119E80461EF040F9628823881D49009297
S31500004AD007462A46022003F095FB8DF808800394CA
S31500004AE00496ADF81450ADF816708DF818A08DF830
S31500004AF0199000F003FB8DF81A0000F001FB8DF809
S31500004B001B0013F052F88DF81C0002A801F0ADFD51
S31500004B10A8B93846214632462B4604F037F970B913
S31500004B203846214632462B46FFF736FF38B9019004
S31500004B3000972046414632462B4604F0BBFD08B09E
S31500004B40BDE8F0871A0903002DE9F74F0D9DBDF862
S31500004B5030609DF838B08146884614461F46002BC3
S31500004B6030D004204249434A03F06AFB238853B1FC
S31500004B7040F20912934208D03F49404AB3F5827F7A
S31500004B8018BF0A4602E03E4A00E03E4A6188042019
S31500004B908DE842003C4903F053FB238873B1022E93
S31500004BA00CD92B78394A3A4913F0010F394B4FF09B
S31500004BB0040008BF1A46AB7803F042FB04203649CE
S31500004BC003F020FB0023354A02EBC301097959455E
S31500004BD002D152F833A004E001330A2BF3D14FF08F
S31500004BE0000A002302EBC3010879584506D1FF22CB
S31500004BF00A712A4A002142F8331002E001330A2BD7
S31500004C00F0D147B9238833B9B4F90230002B02DB5F
S31500004C10082001F0D9FC012001F03AFD55B12B78AE
S31500004C20DB0707D58DE8A0004846414622463346B5
S31500004C3001F094F8BAF1000F06D08DE8A0004846BE
S31500004C40414622463346D0474846414622463B46E1
S31500004C500096019506F074FC4846414622463346C6
S31500004C600C950D9703B0BDE8F04F01F0D7BC00BF1F
S31500004C7066090300700903003D0B03005409030095
S31500004C804D09030051090300780903005709030081
S31500004C90A70903005F09030035550300981F00208C
S31500004CA0AB287FB5044677D010D8942871D006D8A3
S31500004CB0902819D0912872D1042045495EE09628A3
S31500004CC064D098286BD10420424957E0AE2853D0CF
S31500004CD006D8AC284DD0AD2861D104203E494DE020
S31500004CE0AF2850D0BC285AD10023ADF80E3000F0C2
S31500004CF05BFC064600F0FCF9B0FA80F56D092EB1B2
S31500004D000DB1B38800E03389ADF80E3003A80FF07B
S31500004D1025FCBDF80C309B0648BFBDF80E300DF1E2
S31500004D200E0148BF43F020032A464FF0000048BF5B
S31500004D30ADF80E3001F0B0FCBDF80E000FF0F2FB3E
S31500004D4000F0D6F925490090254A264B042003F0A9
S31500004D5059FABC2C08D12449042003F053FA01F077
S31500004D6090FC01F08FFC01E020F0C8FA01F08AFC0B
S31500004D701AE004201D4901E01D49042003F042FA0F
S31500004D8004F0C5FA10E004201A49F7E704201A498E
S31500004D90F4E704201949F1E704201949EEE7022057
S31500004DA01849224603F02EFA204606F04DFC20460E
S31500004DB00DF0A6FB20460DF0EBFF2046FFF7B8FAF4
S31500004DC018B10420104903F01DFA04B070BD00BFED
S31500004DD0C00A0300A40A0300150A0300BA09030067
S31500004DE0C7090300CE090300D7090300F50903002C
S31500004DF0330A03004E0A03006F0A0300810A030008
S31500004E00930A0300D30A0300EB0A030013B5104C00
S31500004E10002002F0C9FD236833B9012301A8ADF8CB
S31500004E2004301AF005F80EE001A800F045FB002852
S31500004E30F3D122689DF8043012789342EDD0012A0E
S31500004E4001D1022BE9D002F0B6FD02B010BD00BFC1
S31500004E508020002010B5044602F0ABFD20460DF080
S31500004E60FDFABDE8104002F0A6BD00000B4B1B6822
S31500004E7013B504467BB1187801280CD1228900921B
S31500004E80E37A0749074A03F0BDF9204602B0BDE8B8
S31500004E90104019F051BE702002B010BD80200020D5
S31500004EA01B0B0300370B03000D4B1B6837B505467C
S31500004EB09BB11C780289C37A0A490092012C4FF0F3
S31500004EC00100094A08BF022403F09CF9204629463E
S31500004ED003B0BDE8304019F05BBF702003B030BDB1
S31500004EE0802000201B0B03007205030010B504464A
S31500004EF000F0F6F8631E04F10F0213F8011FFF29F4
S31500004F0004BF002119709342F7D10023237410BD0A
S31500004F107FB504AB03E9030000239DF80D509DF80F
S31500004F200E601C461549D8B201EBC002526832B178
S31500004F3011F830100133B14208BF1446F2E79DF86C
S31500004F400C1000919DF80A209DF80B300C490420A6
S31500004F5003F076F925B104200A492A4603F070F9D0
S31500004F60094A0A49BDF808300420002C18BF224619
S31500004F7004B0BDE8704003F045B900BFA00B0300C4
S31500004F80400B0300510B03003C0B0300550B0300C1
S31500004F90FFF7DCB910B50AF006FE4FF4E131002246
S31500004FA0012320200EF0F4F807F016FB044607F064
S31500004FB0DBFE224603461249012003F023F907F0DF
S31500004FC011FB044607F0DCFE224603460D4901208C
S31500004FD003F018F907F000FB012303FA00F240F290
S31500004FE0A17313405BB1084C207807F001FB2078D1
S31500004FF007F0C0FB2078BDE8104007F0BFBC10BD2D
S31500005000E80B0300FE0B0300231A002007B500215E
S3150000501001A80A4601F0FFFA00284AD117F084FADF
S31500005020034648B101202549254A03F0EBF82548F7
S31500005030A02107F0BDF803E00220234903F0E2F8BF
S3150000504002F0A8FCFFF73AFB00F030FB00F0F4FAA0
S315000050500220014603F036FCFFF7D8FE01F072FD90
S315000050601A4B41F202021A80194A64231380194A24
S315000050704FF40040138013F0FBFA07F0E5FD17F03C
S3150000508001FB02F0C3FA012801D000F0DCFA0EF0B1
S31500005090EDF8FFF7B9F90020202101F07DFF28B1D6
S315000050A04FF6FF700C490D4A03F0CAF802F085FC72
S315000050B0E3E7019803B05DF804FB00BF1E0C030094
S315000050C0700903002F0C0300400C0300581F00203A
S315000050D0541F0020521F00204A0C03004E0C0300F0
S315000050E0024B7F221988102307F0CCBC70460300C0
S315000050F017F08EBB17F098BB17F050B91EF024B905
S315000051001FB568461DF02EFE98B902A91FF014FEC1
S3150000511002A86946082202F09AFB00B3012002A900
S315000051201FF00AFE02A86946082202F090FB38B971
S3150000513012E01DF009FE4FF6FF739842044601D1B6
S31500005140FF200CE000201FF00FFEA04206D0012039
S315000051501FF00AFEA042F3D1012000E0002004B0B7
S3150000516010BD000010B5044602F036FCA0B9224678
S315000051704FF4A0530820094903F044F820464FF4A1
S31500005180A05105F053FF044605490820224603F0C6
S3150000519039F802F010FC204610BD00BF5D0C03007C
S315000051A0690C03007FB5054602F003FC17F030FBDF
S315000051B038B16B88B3F5006F03D1681D01F030FA82
S315000051C011E0284601F062FA044690B9E6B230468C
S315000051D0694624F04FFE40B99DF800302BB93046A1
S315000051E0294624F0C7FE044603E001340A2CEDD11B
S315000051F0B42402F0E0FB204604B070BD38B5054685
S3150000520002F0D7FB284601F03FFA044648B9284683
S3150000521024F07EFE0446054908202A46234602F06D
S31500005220F1FF02F0C8FB204638BD00BF730C030037
S3150000523037B502A9FF2301F8013D044601F0E4F960
S3150000524010B19DF8070011E0094B03EB04131D7B19
S3150000525012F0ADFC854201D0FF2007E0204600F0A9
S3150000526041FA0028F8D0204600F056FC03B030BDC5
S31500005270102C00202DE9F04107460D4601F0C6F935
S315000052800646F0B9384600F0BBFBFF2819D00E4B96
S3150000529003EB001494F80C8012F089FC804510D1C1
S315000052A063882B80A3886B80A3792B7101213846F4
S315000052B000F038FC31466871384600F033FC0126B0
S315000052C0A8713046BDE8F081102C0020F8B50546DF
S315000052D00E46144600F094FBFF2802D14FF6FF70ED
S315000052E0F8BD0C4B03EB0010077B12F060FC874205
S315000052F0F4D11EB928462146012204E0012EEDD143
S3150000530028462146002200F037FC0028E6D0008817
S31500005310F8BD00BF102C002010B5044602F049FB72
S315000053202046FFF7BDFCBDE8104002F044BB00007C
S3150000533013B503460B480068C45CA24208D200922B
S3150000534004200949094A234602F05CFF002007E0D1
S315000053500022084600921946234617F001FE204611
S3150000536002B010BD701A0020890C030070090300FA
S31500005370F0B59DB0154603AC0E46074602F019FB84
S31500005380284621466422FFF7D3FF85B28DB10DF181
S315000053900A001DF0C9FC0DF10B001DF0CDFC9DF8B7
S315000053A00A209DF90B300095019438463146FFF7E7
S315000053B07FFB02F000FB1DB0F0BD2DE9F0419EB071
S315000053C01C4605AD0F461646804602F0F2FA204608
S315000053D029466422FFF7ACFF50B180B28DE8210068
S315000053E002944046394632469DF89030FFF7ACFBB2
S315000053F002F0E1FA1EB0BDE8F0812DE9F743074659
S315000054000E460A98BDF830909DF834801946144629
S3150000541017F0CEFDFF2805463AD00B9B1870062FD5
S3150000542030D8DFE807F00404040B12241D003846C8
S31500005430314622462B461DF0EFFE21E00C21204688
S315000054400A462B461DF0B8FE1AE0E17ACDF8009028
S31500005450CDF8048020460A462B461DF06FFE0FE06D
S31500005460304621460C222B461DF00EFE08E0E37A5C
S3150000547048468DE828003146424623461DF028FE60
S31500005480044600E00224284617F040FC204600E0CF
S31500005490182003B0BDE8F0830149082202F076B96E
S315000054A0853B002010B50446084616F08BFF2046C3
S315000054B0BDE8104018F06EBF18F06CBF05207047AD
S315000054C0002070470A20704706F02CBA06F09CB9F7
S315000054D006F094B9014B1878704700BF8F1A002068
S315000054E04B207047024B18685968FFF711BD00BF83
S315000054F0705A030013B5044602F05BFA0DF106007C
S315000055001DF012FC0DF107001DF016FC20469DF85B
S3150000551006109DF907200BF0BBFE30B920469DF81A
S3150000552006109DF907200DF0F1FD02F044FA02B0D5
S3150000553010BD38B505460C4602F03BFA2846214612
S315000055400CF074F818B9284621460DF0EFFDBDE8B9
S31500005550384002F030BA38B505460C4602F029FA52
S31500005560284621460BF0FAFE18B9284621460DF0CA
S31500005570BBFDBDE8384002F01EBA38B505460C46FC
S3150000558002F017FA284621460BF014FF18B92846F0
S3150000559021460CF0DFFFBDE8384002F00CBA704738
S315000055A000F063B870470000044B186820B14378D8
S315000055B00348002B18BF0020704700BF8020002042
S315000055C0A20C03002DE9F0411D4686B0194B174683
S315000055D0064603A888461C780EF0CAFF17F0FD0F92
S315000055E008D040B9BDF80C309B0704D5032F08BF7F
S315000055F0032400E00324304641462A463B460094F5
S3150000560001F04CF8FFF774FD854203D03046294679
S3150000561006F0BCF8022C08D0FFF76AFD854204D0DC
S3150000562030462946002206F0F5F8204606B0BDE8C9
S31500005630F08100BFE81F002008B500F0EBFFBDE8D1
S31500005640084003F033BE08B500F0E7FF03F05EFE46
S315000056500CF0C0F9BDE808400CF0B8BA704701F08C
S3150000566002B801F006B80020704738B505460C466A
S3150000567001F018F828462146BDE838400EF04ABB2E
S3150000568000F0F9BF01F005B810B50123312B19461A
S3150000569008D0054A0233D41814F8034C8442F5D1D5
S315000056A0505C10BD002010BDBE0C0300074B08481F
S315000056B001221A70074B4FF48271598000211A702B
S315000056C099809971986019735A737047E91F002081
S315000056D0F00C0300102C0020014B1878704700BF17
S315000056E0E91F0020034B03EB0010407B00F0010094
S315000056F0704700BF102C0020413803288CBF0020C3
S3150000570001207047413801288CBF002001207047D6
S31500005710433801288CBF00200120704700207047C5
S315000057200388B3F57C4F01D3FFF7F8BF002070471D
S3150000573038B54A8803889A420C460DD10B79017B0D
S315000057400B400BD0B2F57C4F0AD3FFF7E7FF238956
S315000057501B1A5842584104E0002002E0184600E0B7
S31500005760012000F0010038BD38B514460D88D288F6
S3150000577095420AD10388B3F57C4F08D2FFF7D0FFD4
S3150000578023891B1A5842584138BD002038BD0120D4
S3150000579038BD00002DE9F04F89B09A469DF8483093
S315000057A00293764BDFF8E4811B78019108EB031333
S315000057B00746154605934FF00009059B984500F0EE
S315000057C0D78018F80D2C3B7858F805CC9A4240F053
S315000057D0C78098F80030DC0740F1C7809CF8043099
S315000057E003934FF0000B039A5FFA8BF3934280F01A
S315000057F0BC80DCF80030CDF810C0142606FB0B3652
S3150000580030463946FFF794FFDDF810C0002800F057
S31500005810A08033890493002304999AB28A4280F0C7
S315000058209C807268CDF81CC00C2404FB032430460F
S3150000583021463A460693FFF797FF069BDDF81CC004
S3150000584000287CD0019B03B11C602379980611D5F2
S315000058504B4A0023A24209D21179890642BF92F827
S31500005860039099441FFA89F30C32F3E7454803EB9A
S31500005870000901E044488144029B63B12146304659
S31500005880FFF74EFF798823880246387800F0A1FE9C
S3150000589098B97E206FE0002D4FD021463046FFF7A5
S315000058A03FFF798823880246387800F090FE00286A
S315000058B0EFD02846DFF8D88003E0DFF8D8804846E6
S315000058C0A9462379DB060DD521463046FFF728FF8A
S315000058D079880346387812952246C44609B0BDE851
S315000058E0F04F6047A378BAF1000F01D1E27800E0EB
S315000058F05246A3F14101012905D8013A4946D2B2DF
S3150000590004F000F819E0433B012B05D8023A49465A
S3150000591092B204F011F810E0029B2BB9BAF1000F15
S3150000592002D0E378534525D84946B9F1000F02D194
S3150000593001F086FF01E001F029FF00201BE022793B
S3150000594012F0300F02BFE07881441FFA89F9013363
S3150000595062E7708981441FFA89F90BF1010B42E76E
S31500005960BCF8060081441FFA89F908F1100824E7FB
S31500005970862000E0892009B0BDE8F08FE91F0020ED
S315000059806C0D0300502B0020202C00201D2C002025
S31500005990FD65000001660000F0B507790024E3B25A
S315000059A0BB4215D21425654306687319755B8D4293
S315000059B00CD17AB1802A04D193F90C50002D05DA66
S315000059C008E0402A02D11D7B6D0603D40134E6E7C8
S315000059D00020F0BD1846F0BD074B1B783BB1074BC6
S315000059E01A78824205D1587B00F0010070471846AC
S315000059F070470020704700BFE91F0020102C0020D0
S31500005A0070B50A4B1D780022D3B2AB420AD21401FC
S31500005A1007496618615C814202D1717BC90703D4CC
S31500005A200132F1E7FF2070BD184670BDE91F002066
S31500005A30102C002038B50D461446FFF7E1FFFF286D
S31500005A4009D0064B03EB0010294622468068BDE8C4
S31500005A503840FFF7A1BF002038BD00BF102C002042
S31500005A6008B50022FFF7E6FF003018BF012008BD89
S31500005A7008B54022FFF7DEFF003018BF012008BD41
S31500005A8008B58022FFF7D6FF003018BF012008BDF9
S31500005A90054B1B7833B1054B1B78834214BFFF209F
S31500005AA000207047FF207047E91F0020102C0020BF
S31500005AB038B50D461446FFF7EBFF054B03EB001018
S31500005AC0294622468068BDE83840FFF765BF00BF1B
S31500005AD0102C002070B506460D461446FFF7AAFFA7
S31500005AE080B1094B187870B1084B1878B04207D0CE
S31500005AF029462246FFF7DCFF003018BF012070BDA3
S31500005B00002070BDFF2070BDE91F0020102C002072
S31500005B104022FFF7DFBF0000014B0001185C704711
S31500005B20102C002070B50D46FFF76AFFFF2817D02E
S31500005B30104B03EB00108268A2B1002411792046B5
S31500005B40E3B28B420BD21668142303FB04635DB1E8
S31500005B501B7B5B0601D5431CD8B20134F0E770BD50
S31500005B60002070BD104670BD93F90C30002BF4DA9E
S31500005B70F1E700BF102C00202DE9F0410F469046BA
S31500005B80FFF73EFFFF281ED0104B03EB001000244A
S31500005B90866832792546E3B2934214D230681423DC
S31500005BA003FB0400B8F1000F03D0037B5B0604D4AB
S31500005BB007E090F90C30002B03DABD4204D0013522
S31500005BC0EDB20134E7E70020BDE8F081102C00209B
S31500005BD02DE9F04F8BB0064611F0E7FF3D4B1B78E1
S31500005BE0039383460024039B9C426FD2FF2E05D06D
S31500005BF03046FFF705FFFF28044667D0FF2EDFF883
S31500005C00D8904FEA041804D109EB08031B7B5B45C7
S31500005C1059D1002709EB08039A681179FBB299421A
S31500005C204FD91268142505FB03252B89B3F5967FFA
S31500005C3001D907F009F84FF0000A2A891FFA8AF3FA
S31500005C409A423CD90C21686859434218137913F0DB
S31500005C50100F31D119F808E08DF81CE0B5F800E016
S31500005C60ADF81EE013F0400F14BF4FF0800E4FF05A
S31500005C70400E8DF820E0415AADF822102846114614
S31500005C8005930492FFF74CFD059B049AADF824009A
S31500005C9013F0040FD37804D0022B926805D912684A
S31500005CA003E0022B8CBF9268083201230021009387
S31500005CB007A80B46FFF76EFD0AF1010ABDE701379B
S31500005CC0A8E7FF2E02D10134E4B28CE70BB0BDE8A1
S31500005CD0F08F00BFE91F0020102C00200021FFF7E5
S31500005CE077BF10B501210446FFF772FF2046BDE8D5
S31500005CF01040FFF7B3BC704710B5047B11EA0403EC
S31500005D0010D0002201238B4208D2234218BF013251
S31500005D104FEA430318BFD2B2DBB2F4E7036953F884
S31500005D20220010BD184610BDF8B517469DF818207C
S31500005D3005461E46FFF77EFE78B10421FFF7DCFF1D
S31500005D40044650B1284601F047FE284639463246F9
S31500005D50A047BDE8F84001F02EBEF8BD2DE9F74F8B
S31500005D600C9D9DF834B0824689461F46144612B3F0
S31500005D700DB303B32B7892F80480518813F0080F03
S31500005D8014BF402280224046FFF754FE98B10821F6
S31500005D90FFF7B2FF064670B1404601F01DFE8DE8E2
S31500005DA020085046494622463B46B04703B0BDE868
S31500005DB0F04F01F000BE03B0BDE8F08FF8B517460E
S31500005DC01A460446BDF81860FFF734FEE0B15EB926
S31500005DD00221FFF791FF0546B0B1204601F0FCFD18
S31500005DE020463946A8470BE01021FFF785FF0546F8
S31500005DF050B1204601F0F0FD204639463246A8470C
S31500005E00BDE8F84001F0D7BDF8BD73B516461A4691
S31500005E100546FFF70FFEB8B1BDF81830B3B920211B
S31500005E20FFF76AFF044698B1284601F0D5FD099BA5
S31500005E300093284631469DF81C209DF82030A04747
S31500005E40044601F0B8FD03E0862002E0002000E0F1
S31500005E50204602B070BDF8B586680446007801F0A9
S31500005E60BBFD00253379EAB2934211D9142353437B
S31500005E7032682078D15AD71800F0AFFB3846012196
S31500005E80FFF73AFF034608B1207898470135E9E75E
S31500005E90BDE8F84001F08FBD10B50024074B1B7814
S31500005EA0E0B2834209D9064B03EB0010437BDB07C4
S31500005EB001D5FFF7D0FF0134F0E710BDE91F002040
S31500005EC0102C002070B5164B1B7833B3154B1D787C
S31500005ED085421C4621D15A7B02F0010039B142F0BD
S31500005EE001025A7328B91846FFF7B5FF01E0597346
S31500005EF008B9012070BDA26813794E1CC9B28B4245
S31500005F00F7D91423594313685A182846127B595A4D
S31500005F10D209FEF7E1FA3146EDE7002070BD00BF79
S31500005F20E91F0020102C00202DE9F047099FBDF83D
S31500005F3020E09DF828C09DF82C804C7D28B14CB1FE
S31500005F40012C14BF0425012505E0002C14BF0425EF
S31500005F50082500E002251848002400F11C0930F845
S31500005F60036C96421ED190F800A01AEA050F19D0CC
S31500005F7010F8016C664515D31AF0100F91F80FA0B2
S31500005F8003D0BAF1000F03D10CE0BAF1000F09D12A
S31500005F90A0450DD074450BD21E553E8801340136FE
S31500005FA03E80A4B204304845D9D10120BDE8F0872F
S31500005FB00020BDE8F08700BF530D03002DE9F04F28
S31500005FC089B01C469DF84C30019392469DF850309E
S31500005FD00293224606460D46FFF72CFDBDF84830D3
S31500005FE08DF81460ADF816508DF81840ADF81AA06B
S31500005FF0ADF81C30804608B901204CE005A9FFF732
S3150000600097FB0028F8D04FF0000B5F465C465D46D4
S31500006010B8F808101FFA8BF2914238D90C2656436D
S31500006020B8F80020D8F80430B2F57C4F03EB060927
S3150000603005D3985B50450FD20134A4B222E09A5B97
S31500006040ADF81A204046494605AA0393FFF78CFB94
S31500006050039B0028EDD117E0019B9D4212D201F06F
S3150000606051FC99F8020001F039FC029B43B199F802
S31500006070042012F0010F14BF0720052001F02EFCAA
S315000060800135ADB20137BFB20BF1010BC0E72C44AD
S31500006090E31B5842584109B0BDE8F08F2DE9F04F97
S315000060A08FB090461F4600229DF87030BDF8609074
S315000060B005938DF82C00ADF82E10134606460D46B6
S315000060C000920BA808A9199C9DF868B008928DF853
S315000060D03070ADF83280ADF83490FFF75BFB089B6B
S315000060E0002B00F093809DF86C203AB99A785A45B7
S315000060F040F08E801A79D10740F18C801A795207C8
S3150000610039D59A685168926809910A92987803F08D
S3150000611099FC089B93F803A0BAF1020F844614D8A1
S3150000612063462146524609A8CDF81CC003F025FC5B
S31500006130DDF81CC0069063460AA82146524603F0C5
S315000061401CFC069B012B12D113E063460998CDF87F
S3150000615018C02146524603F010FC0128DDF818C08D
S3150000616007D00A9821465246634603F006FC0130E2
S3150000617001D1872051E0059B002B4DD18DE8000A07
S31500006180089BDB78029303943046294642463B46F9
S3150000619000F065FA002840D18DE8000A089BDB78FC
S315000061A0029303943046294642463B46FFF72DFEAE
S315000061B098BB0599012300930BA822460B46FFF7CF
S315000061C0E9FA50BB204631462A46089BFFF793FD65
S315000061D03046294642463B468DE8000A029400F0C6
S315000061E05AFA8DE8000A089BDB7802933046294666
S315000061F042463B46039400F031FACDF80090304613
S31500006200294642463B46FFF7D9FD05E0862004E0D5
S315000062108D2002E0882000E000200FB0BDE8F08F5E
S315000062202DE9F04786B08246BDF838600F9D9DF88F
S315000062304040009601950294894690461F4600F01C
S31500006240C4F988B1022810D80CBF01230023039398
S31500006250002304930096019502945046494642460F
S315000062603B46FFF71BFF00E0012006B0BDE8F087C4
S3150000627030B587B000240A9D01959DF82C500295F3
S315000062800125009403950494FFF708FF07B030BD7D
S3150000629010B586B0002401939DF8203002930123A7
S315000062A00393009404944023FFF7F8FE06B010BD54
S315000062B010B586B0BDF820400094099C01949DF865
S315000062C0284002940024039401240494FFF7E6FE78
S315000062D006B010BD30B587B000258DF81030BDF87A
S315000062E028308DF80C00ADF80E10ADF81220ADF880
S315000062F01430009503A802A90B9ABDF830300D9C06
S315000063000295FFF747FA18B914B1029B9B782370E0
S3150000631007B030BD1FB500240094069C01949DF87B
S315000063201C400294089C0394FFF7D4FF04B010BDF0
S315000063302DE9F04F002699B0FFF7CEF95FFA86FAFD
S31500006340824557D200272D4A4FEA0A1B02EB0B0360
S31500006350996804920879FBB2984249D90A681424CC
S3150000636004FB03244FF0000822891FFA88F39A429F
S315000063703CD94FF00C0909FB03F96368059303EB5D
S31500006380090506F061FC29462046FFF7C9F9049B7A
S31500006390218813F80BE0059B33F809202B79009030
S315000063A013F0400F4FF0410302930DF11C094FF01B
S315000063B000030393CDF8049014BF80234023704656
S315000063C0FFF788FF86280ED0A878FFF79BF918B14B
S315000063D0484601F0CEFA06E0A878FFF799F910B121
S315000063E0484601F0CBFA08F10108BDE70137AAE7F4
S315000063F00136A1E719B0BDE8F08F00BF102C0020D0
S31500006400F0B597B01646BDF87470042F49D9BDF89B
S31500006410704000944124029405AD0DF113040394D9
S315000064200195FFF757FF0446D8B99DF81300A0F170
S315000064304103012B04D8284601F09BFA013007E0FE
S31500006440A0F14303012B05D8284601F097FA023044
S31500006450C4B202E0FFF718F90446E31CBB4220DA97
S3150000646006E0304601F04EFA204601F037FA18E011
S31500006470304601F047FA0C4E002001F02FFA9DF845
S31500006480130001F02BFA33881A19632A09DC07482E
S31500006490A4B218442246294601F078F9308804440B
S315000064A0348017B0F0BD00BF5C2C00206C2C00209F
S315000064B010B50446C07B20B9E37C1BB904F0EEFEA0
S315000064C000E00020E37B20B9002B14BF832081204D
S315000064D010BD002010BD10B50446C07B60B9E37C3A
S315000064E05BB9217DA2898B1C9A420DD3A06801F06D
S315000064F03AFA0AF02DFE00E00020E37B30B9002BCB
S3150000650014BF8320812010BD802010BD002010BD47
S3150000651010B50446C07B88B9E37C23B1012B0ED1AC
S315000065200BF0E8FA0BE0217DA2898B1C9A420DD371
S31500006530A06801F018FA0BF0C3FA00E00020E37B34
S3150000654030B9002B14BF8320812010BD802010BDE0
S31500006550002010BD38B5C37B002B437D14BF8325B7
S31500006560C325012B044616D1036858795988FFF7CD
S3150000657087FA80B123685B88032B07D0062B21D1CD
S31500006580E37B002B14BF832581251BE02046BDE855
S315000065903840FFF7A0BF637DA3B9236858795988AF
S315000065A0FFF766FA70B123685B8833B1032B09D114
S315000065B02046BDE83840FFF7ABBF2046BDE838406F
S315000065C0FFF776BF284638BD704701207047012087
S315000065D0704701207047B52070477047002070470C
S315000065E00020704700207047002070470020704749
S315000065F00020704700207047002070470120704738
S315000066000120704700207047002070470020704727
S315000066100020704770470020704770470020704781
S31500006620B520704770477047704770470120704724
S3150000663070477047704701207047002070477047C9
S315000066400120704700207047034B1B68187801280B
S3150000665008BF0220704700BF80200020704700203E
S3150000666070470020704700207047002070470020C8
S3150000667070470020704700207047002070470020B8
S3150000668070477047B520704700207047002070475C
S3150000669070470020704770477047704770477047D3
S315000066A000207047704701200621022203F018BB24
S315000066B001200621422203F013BB012006214122BC
S315000066C003F00EBB01200621024603F009BB0120A0
S315000066D00621402203F004BB01200621002203F01C
S315000066E0FFBA01200321402203F0FABA0120032158
S315000066F0024603F0F5BA01200321002203F0F0BAA6
S3150000670001200321022203F0EBBA09200021012215
S3150000671003F0E6BA2DE9F74F022907468A461D46D9
S315000067208DF807200E9C02D963B1042904D80220F3
S315000067305E4901F067FD3DE09DF8073043F0040334
S315000067408DF807300DF1070002F0A0FE9DF8073026
S315000067503B7025B17D702D0ABD70032500E0012533
S3150000676002F066FE05F1020B785501359DF83020E2
S315000067707A554FF0000908E00BEB02031FFA83FB82
S31500006780002C70D109F1010944465FFA89F20D9B8C
S315000067909D5C002D77D0732D0ED9752D75D0762D75
S315000067A075D0782D75D0772D75D0022040492A46B0
S315000067B001F028FD002075E04C2D04F10408266840
S315000067C003D0532D01D0622D15D161684C2D04F1F3
S315000067D008088CB207D14FF6FF722146944214BFC7
S315000067E00222002224E0532D20D1C9B2B1F1FF02CA
S315000067F018BF01221CE06C2D04D1304601F0BEF812
S31500006800023005E0732D05D1304601F0B2F80130B3
S3150000681084B20BE0A5F13004E2B2092A05D9A5F14C
S315000068204102062AC1D8A5F13704A4B200221146B6
S315000068300BEB04001044824502DBDC46104606E002
S315000068401C49022022442B4601F0DCFCB2E700285A
S3150000685092D00CF1010E013807F80C10C0B2090AEB
S315000068601FFA8EFCF3E71EB9022013492246EAE717
S3150000687007EB0B003146224600F088FF0BEB0403C2
S315000068801FFA83FB7EE758460CE0012204E0022251
S3150000689002E0032200E0042204F104082168002437
S315000068A02646C5E703B0BDE8F08F00BF6C1E0300A7
S315000068B0911E0300AA1E0300DD1E030010B5044C42
S315000068C020600448018004490A60044A136010BD30
S315000068D0F41F0020EA1F0020F01F0020EC1F0020FC
S315000068E008B430B586B009AB0D461149044653F8D5
S315000068F0040B0988059302930E4B009201902246E1
S3150000690018680023FFF706FF0B4B1B6818800B4B1C
S31500006910044618684FF48253458020F8063F02F07B
S31500006920A3FD204606B0BDE8304001B0704700BF69
S31500006930EA1F0020F41F0020F01F0020EC1F00209B
S31500006940044A05491268034608681188034A126812
S31500006950FDF75CBFF01F0020EC1F0020F41F002095
S315000069600020FFF7EDBF000013B5064B064C1B6871
S3150000697024681B880192054A00941268FDF71AFFE5
S3150000698002B010BDF01F0020F41F0020EC1F0020F5
S315000069900022FFF7E9BF000007B5064B1B681A88FF
S315000069A0054B00911968054B1B68FDF7E7FE03B020
S315000069B05DF804FBF01F0020EC1F0020F41F0020F0
S315000069C00021FFF7E9BF0000014B1868704700BFC0
S315000069D0EC1F0020024B1B6818715971704700BFED
S315000069E0EC1F002070B50D468C682A6824490646BF
S315000069F0202006F0A1FC6B6823B92249202006F06E
S31500006A009BFC31E086B3013C14F8012F42B3752A92
S31500006A1013D0762A13D0772A13D0732A13D0722A6A
S31500006A2013D0712A13D0622A13D06E2A13D01649B6
S31500006A30164B2A2A08BF19460EE015490CE01549DF
S31500006A400AE0154908E0154906E0154904E015492C
S31500006A5002E0154900E01549202006F06DFCD3E759
S31500006A602020134906F07CFC20200CF0E7FB2020B8
S31500006A700F4906F075FC2020BDE870400CF0DEBB27
S31500006A808B4A03005A1F03005E1F0300611F0300A9
S31500006A90181F03000C1F0300231F03002F1F0300F2
S31500006AA0391F0300441F03004F1F0300591F030033
S31500006AB035550300F0B5214B93F87B20104453FA6B
S31500006AC080F0002690F8655090F866205F19551BF7
S31500006AD01B4A013792F800E0EDB230461A46F4B28E
S31500006AE0AC4228D2BB5D11B10CB92D2B21D0782B2D
S31500006AF018D0582B08D0602B1ED8402B05D83A2B1F
S31500006B0034BF3024002401E068B137241B1BDBB2FC
S31500006B10734502D200FB0E300BE0052382F8793074
S31500006B200020F0BD40B9013C012CE4D84FF0100E16
S31500006B3000200136D3E7F0BD5724E7E7F91F002010
S31500006B40241A0020094A0023FF21137082F87830A6
S31500006B5082F8653082F8773082F8793082F87A10D8
S31500006B6082F87B30024A1360704700BFF91F00208D
S31500006B70282C0020034A92F8773092F87B00181AE6
S31500006B80C0B27047F91F00200021FFF793BF000035
S31500006B9010B50A4A92F87B30034452FA83F393F80D
S31500006BA0653013445C78A4F12D035C425C412146B8
S31500006BB0FFF780FF04B1404210BD00BFF91F00205F
S31500006BC030B50C4A92F87B300344C043DBB2C00FA9
S31500006BD039B1D51895F8664095F86550641B241AA6
S31500006BE00C7042FA83F393F865301A44013210446C
S31500006BF030BD00BFF91F0020F7B50E460DF10701A5
S31500006C0015461C46FFF7DCFF9DF80730AB420746EA
S31500006C1088BF8DF807501CB19DF807402C1BE4B2C5
S31500006C2030462246002100F00BFE301939469DF809
S31500006C30072000F0ABFD9DF8070003B0F0BD38B5A6
S31500006C4008220C460123FFF7D7FFE21D2146002349
S31500006C5014780D7802F80159013B01F8014B1C1D0F
S31500006C60F6D138BD10B5044621460120FFF7BAFE1D
S31500006C706368A4681BB122786E2A0DD11C4623686E
S31500006C804BB10649202006F057FB21460020FFF7AE
S31500006C90A9FE0C34F3E710BD10BD00BFFF280300AA
S31500006CA008B52020034906F047FB2020BDE8084030
S31500006CB00CF0C4BAF61F030010B5FFF7F1FF054C40
S31500006CC023682BB121460020FFF78CFE0C34F7E732
S31500006CD010BD00BF601B03002DE9F84302461F4BA1
S31500006CE01F4E53F822201F49202006F025FB33684B
S31500006CF01BB9BDE8F843FFF7DFBFFFF7D1FF002759
S31500006D00194C94F87B305FFA87F8013B984520DAF6
S31500006D1044FA87F393F8655025440135002304EBC4
S31500006D20080103F1010991F8662091F86510521ADD
S31500006D30DBB2D2B293424FF0200005D2EA5C0B4997
S31500006D4006F0FAFA4B46EAE7094906F0F5FA013782
S31500006D50D6E73068BDE8F843FFF784BF281A00205D
S31500006D60282C002036200300F91F00201B3A0300C0
S31500006D70002903002DE9F84F804D95F87730002B58
S31500006D8000F093807E4B1B78DB0720D5002495F816
S31500006D9077107A4AE3B2994215D942FA84F113443C
S31500006DA091F86510114493F8662093F86530D21A6D
S31500006DB00131D2B220200CF03CFA2020714906F0B5
S31500006DC0BBFA0134E3E720206F4906F0B5FA95F8DF
S31500006DD077A0DFF8C0E16D4C00269EF800201EF873
S31500006DE0013F1EF8017C2A44DF1B4FF0000C0132E4
S31500006DF0FFB2E046206858B301389146C2EB090B52
S31500006E00BB4510F8013FB3FA83F14FEA511101D1A6
S31500006E1009B127E021B1B8F1000F15D1A04615E060
S31500006E2019F8011BA1F1410BBBF1190F98BF2031D5
S31500006E30A3F1410B98BFC9B2BBF1190F9CBF203318
S31500006E40DBB29942DAD001E04FF0010C0C34D1E705
S31500006E504446BCF1000F00D124B9022385F87930ED
S31500006E60002419E04A4B1C6095F87B30013385F805
S31500006E707B306368A2680136F6B20BB9144606E0A9
S31500006E8012786E2A02D03F2A13D105E01C465645D9
S31500006E90A3D3032385F8793095F8790018B960688B
S31500006EA000F060F901E0FFF717FFBDE8F84FFFF7C4
S31500006EB049BE4FF000094F465FFA89F0831995F8ED
S31500006EC077102E4ADBB29942A3684CD992F87B1010
S31500006ED0DB5D014452FA81F1732B91F86510114480
S31500006EE0497805D8712B07D243B3622B20D029E00D
S31500006EF0A3F17502022A25D8752B0AD0762B0BD062
S31500006F00732B0CD0722B47F6FF7818BF4FF0FF3863
S31500006F1007E04FF0FF0804E04FF6FF7801E04FF07E
S31500006F207F080121FFF7C6FD40450ED904230AE07C
S31500006F3022290AD07B2908D0052300E0032382F802
S31500006F40793002E0072385F87930A3683B4409F1DC
S31500006F5001095B782A2B95F879301CBF0137FFB2FF
S31500006F60002BA9D098E7D95D002995D01F447B78DE
S31500006F702A2B1CBF032382F879308DE7F91F0020E6
S31500006F80F81F00200029030033200300601B0300C4
S31500006F90282C00205E2000202DE9F34105460C46F2
S31500006FA0002655B920460DF107010CF03BF968B1F2
S31500006FB0262800F0CE8001225CE0002C00F0C9807B
S31500006FC015F8013B8DF80730013CE4B2634A1378AB
S31500006FD00D2B9DF80730137001D10A2BE1D00D2B34
S31500006FE004D0A3F10A067242724100E00122A3F125
S31500006FF020014F424F415A49A3F1220091F800C0A7
S31500007000D0F1000E4EEB000E16460846BCF1040FFA
S31500007010C7D8DFE80CF0031318229200002A69D1C2
S31500007020002FBDD1BEF1000F01D0022302E07B2B61
S3150000703002D103230B7061E00123FBE7002A42D152
S31500007040002F40D15AE0BEF1000F3CD1002A55D0A6
S31500007050052381F8793001266CE091F87AE0BEF1DB
S31500007060FF0C18BF4FF0010C7D2B07D1BCF1000FB0
S3150000707029D005223A4B83F879205BE0602B06D8AD
S31500007080402B06D83A2B34BF3022002202E057228A
S3150000709000E037229A1AD3B20F2B0DD8BCF1000F9D
S315000070A007D003EB0E138DF80730FF2381F87A30F3
S315000070B024E081F87A3074E7002F7FF472AF05235D
S315000070C081F8793036E091F877302548112B03D1D5
S315000070D0032380F879302DE00133DBB280F8773076
S315000070E0034490F8781083F8651000230370002A93
S315000070F03FF456AFFFF73EFE012652E791F878209F
S31500007100174B642A01D10622B5E71B78012B09D15A
S315000071109DF80730A3F14107192F9CBF2033DBB23E
S315000071208DF8073083189DF807005870013281F8F2
S31500007130782036E70A4B04221A70002E3FF431AF4E
S31500007140074B93F8790008B1FFF7C6FDFFF7FAFC85
S3150000715027E7304602B0BDE8F08100BF7520002069
S31500007160F91F002010B5054B0446187800F01CFCEA
S31500007170A047BDE8104000F01EBC00BF84200020E0
S315000071807FB501A8FDF7B2FE042004490DEB00020D
S3150000719001F038F807B05DF804FB00BFAA20030031
S315000071A02DE9F04F8FB0FF231822002108A88DF893
S315000071B0123029F0CEF80DF113014FF0FF30FFF732
S315000071C0FFFCFFF7DDFF41F202028F49042001F0C8
S315000071D019F806A8FEF760F908A90DF11200FEF7E6
S315000071E061F90420894901F02BF8042000F0ECFF36
S315000071F010B106A800F06CFF9DF92A3084499DF86D
S315000072002B20042000F0FEFF15F05EF9831EDBB292
S31500007210FC2B05462CD804207E4900F0F3FF012400
S31500007220224604207C4901F00BF8E0B205A915F0CE
S31500007230EDF8912802460ED093280CD080B99DF91E
S31500007240141000919DF815209DF8163073490420FE
S3150000725000F0D8FF08E00420714900F0D3FF03E0F6
S315000072600420704900F0CEFF0134E3B2AB42D7D31D
S31500007270BDF82840FDF73CFF6B4903462246042033
S3150000728000F0DEFF0420694900F0DAFF042000F078
S315000072909BFF10B108A800F01BFF0420644900F012
S315000072A0B1FFFEF71FF90420624900F0C9FF9DF8FF
S315000072B01220FF2A4FF0040003D05F4900F0C0FF00
S315000072C002E05E4900F0BCFF5949042000F09AFF35
S315000072D0FEF7F4F85A495B4A0346042000F092FF91
S315000072E015F05CF858490246042000F0A9FFFEF7A5
S315000072F0F1F80446FEF7F4F8544903462246042002
S3150000730000F080FFFEF7E8F951490246042000F03C
S3150000731079FF0027FEF7E0F9FDB2854253D24D4CC6
S315000073204D4EDFF8689104EB05142846D4F8088022
S31500007330FEF7F2FB03902846FEF7D4F9002814BFA7
S31500007340B346CB462846FEF7E7FB01F0A3FF00282D
S3150000735014BF3046484600904049039A04205B46D5
S3150000736000F06EFFA188227B63880091A1790191CC
S3150000737004203B4900F046FF002598F80430ECB2A3
S31500007380A3421ED9D8F80060364A374914235C4315
S315000073903319042093F90CE0344B12EA2E0238BF5D
S315000073A01A46335B00F04CFF042000F00DFF10B1CD
S315000073B0305B01F0CFFF04202D4900F023FF01359B
S315000073C0DBE70137A6E72B492B4C0122042000F00E
S315000073D019FF002000F0E8FA284B29490420002272
S315000073E000F010FF236853B11A782649042000F0F4
S315000073F009FF236824495A78042000F003FF00F0AF
S31500007400DAFA0FB0BDE8F08FE2200300FD2003009A
S3150000741029210300042103001A210300212103006E
S315000074203E210300E03003004921030067210300E9
S31500007430610B030070210300804D03007B210300D4
S3150000744083210300912103009A210300AE2103004A
S31500007450BD210300102C0020B9200300C821030021
S31500007460E8210300CA2003001A220300D6200300E5
S3150000747035550300312203008020002049220300F5
S315000074803D2203005722030069220300C1200300A6
S3150000749008B50020FFF778FBBDE8084080B200F091
S315000074A01FBF08B50020FFF76FFBBDE8084080B29C
S315000074B000F028BF10B50024054B0C34234453F8C4
S315000074C00C2C22B10420034900F09CFEF4E710BD09
S315000074D0601B03008B4A030005F032BC08B5002090
S315000074E0FFF752FB054B1A7810F0FF0F14BF42F05E
S315000074F0010222F001021A7008BD00BFF81F002029
S3150000750070B50CF021FE00250646EBB20D4A52F886
S315000075103340ACB10C4A0D4952F82320012000F04B
S315000075208FFE237823B90120094900F06BFE05E0A0
S31500007530626808490120921B00F064FE0135E4E709
S3150000754070BD00BF50070300E0190020822203002F
S3150000755089220300922203002DE9F0410025FEF75F
S31500007560BBF8ECB2844219D20D4F2601204617F81B
S315000075700680FEF7B7F80B4A0B4B0C49002808BFEC
S3150000758013464246012000F05BFEB85DFEF707F8A1
S315000075900120074900F036FE0135E0E7BDE8F0813D
S315000075A0102C0020642303005A23030098220300B2
S315000075B03555030008B50020FFF7E6FA094B1B68AE
S315000075C01B681978A1F1650359425941C0B2FEF70B
S315000075D079FC28B901200449BDE8084000F012BE34
S315000075E008BD00BF282C0020A32203000B0A43EA93
S315000075F0012189B24840C0F303114140080380B21B
S315000076004840C3B280EA431070470000014B187827
S31500007610704700BF76200020014B1870704700BFEE
S315000076207620002011F046B838B5A0F14303054690
S315000076300A2B30D8DFE803F0060A0A12122F2F2F82
S315000076402F2F3500BDE8384010F062B910F02AF946
S3150000765020B110F05DF90028FBD138BD114C20781F
S31500007660F8B90123443D23700CF074FA032D0BD8AE
S31500007670DFE805F00E0E050240F6010001E040F6D7
S3150000768002000CF0A7FC03E00748752104F090FD0A
S315000076900023237038BD04488721BDE8384004F034
S315000076A087BD38BD77200020BD2203007047704794
S315000076B0704770477047704770477047704770470C
S315000076C07047704770477047704700207047704793
S315000076D07047704700207047704700002DE9F04161
S315000076E000245FFA84F8404614F0FAFEFF280646A6
S315000076F01C4D05D128781C49224605F031FE28E0AC
S315000077001A4BDFF884E053F82420194B194947B285
S3150000771033EA270328BF7346287805F021FE002F99
S3150000772017DA14B1B8F1030F08D1134B13492878AF
S3150000773016F0010F08BF194605F012FE0A2C08D1F3
S315000077400F4B1049287816F0010F08BF194605F0AF
S3150000775007FE287801340BF071FD142CC1D1BDE869
S31500007760F08100BF231A00206D230300DC220300F2
S315000077705629030095230300462303003023030004
S315000077806223030058230300355503008842F0B5F1
S3150000779003D804460B46154629E0531E97086FF09A
S315000077A003051844194407FB055504460E460544CF
S315000077B0043CAC42A6F1040608D033792371F37871
S315000077C0E370B378A37073786370F1E76FF0030327
S315000077D07B43194402F00302013318448A1A91428A
S315000077E004D011F8013900F8013DF8E7F0BD032D8A
S315000077F004F1040403F1040312D913F8046C04F829
S31500007800046C13F8036C04F8036C13F8026C04F8A8
S31500007810026C043D13F8016C04F8016CADB2E6E7A6
S3150000782093089B00194402F00302013B18440A44E2
S31500007830914204D011F8013B00F8013FF8E7F0BD92
S3150000784022B1013A00F8011B92B2F9E7704710B570
S31500007850013801395AB110F8013F11F8014FA3421E
S3150000786002D01A1B90B203E0013A92B2F2E7104638
S3150000787000B210BD10B5013801395AB110F8013FF8
S3150000788011F8014FA34202D01A1BD0B203E0013A0D
S3150000789092B2F2E7104640B210BD00000A4B10B596
S315000078A000241C70FDF724FC084B21461880642236
S315000078B00748FFF7C5FF074B07481C8021460C22E7
S315000078C0BDE81040FFF7BCBFC12000206A2C002095
S315000078D06C2C00205C2C00205E2C002007490B88B5
S315000078E0632B9FBF064AD05401339BB29DBF0B80CA
S315000078F003F1FF3398180020704700BF5C2C00206E
S315000079006C2C002038B50546C0B2FFF7E7FF0446E9
S31500007910280AFFF7E3FF24B1002814BF2046002001
S3150000792038BD204638BD000010B5CC18944201DCA5
S31500007930002206E0022009491A4600F063FC0020F6
S3150000794010BD43B144181C44013B14F8014CDBB292
S3150000795004EB0222F5E7104610BD00BF8A2403009F
S315000079600423FFF7E1BF08B50223FFF7DDFF80B26E
S3150000797008BD0078FF2808BF0020704708B5002121
S315000079800222FFF7F0FF4FF6FF73984208BF002070
S3150000799008BD0000024B034A1A600020704700BF72
S315000079A080200020EE0C0300002814BF7020002069
S315000079B0704700207047002070477047014B1878C9
S315000079C0704700BF102C002008B5FEF719F8FF28F5
S315000079D00CBFFF20002008BD08B5FFF7F5FFFF2804
S315000079E00CBFA320002008BD002303707047FCF7DE
S315000079F026BD10B5002118220446FFF721FF2046B8
S31500007A000AF098FD0020FFF7BFF8E0720120FFF7AB
S31500007A10BFF8A0720220FFF7B7F82081FFF7AAF897
S31500007A20032809D90320FFF7AFF8E37AC0B203F0C1
S31500007A301F0343EA4010E07210BD00007FB500212D
S31500007A401822684628F085FC6846FFF7D2FF68468C
S31500007A50FDF72AFA0449054A0346042000F0D2FB42
S31500007A6007B05DF804FB00BF09250300615303005E
S31500007A7010B50020FFF788F8041C4FF0010018BF6E
S31500007A800124FFF781F80849A222002818BF014601
S31500007A90204616F0A5FC0549054A0346BDE81040F8
S31500007AA0042000F0AFBB00BF00F8FF070925030064
S31500007AB01814030070B50020FFF766F8044601208D
S31500007AC0FFF762F805460220FFF75EF8E4B2C2B29D
S31500007AD0201C294618BF012016F0CBFC0349044A96
S31500007AE00346BDE87040042000F08CBB0925030066
S31500007AF0112503007FB56846FFF77BFF6846FDF753
S31500007B00B5F90449044A0346042000F07BFB07B09C
S31500007B105DF804FB09250300E013030008B50C49D2
S31500007B200020FFF78CF80A480AF05EFD0420094998
S31500007B3000F086FB042000F047FB10B1044800F07B
S31500007B40C7FA04200449BDE8084000F05BBB00BF4B
S31500007B50B9200020262503003555030010B517F07F
S31500007B6029FF0449044A0346BDE81040042000F0FA
S31500007B7049BB00BF09250300EE13030010B5002022
S31500007B80FFF702F8002104464FF0FF30FFF718F820
S31500007B900178A1F162035942E0B25941BDE81040B3
S31500007BA0FCF7C6BE08B50AF02FFD03490246BDE83C
S31500007BB00840012000F026BB3425030008B50AF072
S31500007BC079FC03490246BDE80840012000F01ABBD3
S31500007BD04825030010B50020FEF7D6FF0121C4B2E8
S31500007BE0A140FE2200234FF6FF701CF04BFF2246F9
S31500007BF0034603490420BDE8104000F003BB00BF64
S31500007C005A25030007B502A8012320F8043D17F002
S31500007C100FF904490246042000F0F4FA03B05DF8B7
S31500007C2004FB00BF7725030008B50020FEF7ACFF74
S31500007C30C0B228B101200449BDE8084000F0E2BA0C
S31500007C40024B187008BD00BF932503008420002056
S31500007C5007B56846FDF720FCFDF74AFA08490246D3
S31500007C60012000F0EDFA684600F032FAFDF742FA1C
S31500007C7004490246012000F0C5FA03B05DF804FB92
S31500007C80A9250300C225030073B50020FEF77CFF7B
S31500007C90C6B20120FEF778FFC5B20220FEF778FFD4
S31500007CA0C4B2FEF767FF032804D90320FEF76CFF72
S31500007CB0C0B200E000200090314601202A4663B29F
S31500007CC020F0BEFC30B90849012002B0BDE8704082
S31500007CD000F098BA00900549054A064B012000F0CD
S31500007CE091FA02B070BD00BFD2250300EE25030055
S31500007CF0C5510300DA25030007B5012020F0A2FCD8
S31500007D00034638B90849094A012003B05DF804EB77
S31500007D1000F078BA00900649064A044B012000F0AC
S31500007D2071FA03B05DF804FB03260300DA250300AD
S31500007D30EE25030013140300037813F0050F37B57F
S31500007D40044622D04388062B0AD18268838852686B
S31500007D501449127800920420134A00F053FA14E0F2
S31500007D602BB904201149A28800F04CFA0DE0012B32
S31500007D700BD185680E49042000F062FA284600F00F
S31500007D80A7F904200B4900F03DFA2378012B07D010
S31500007D900949054A042003B0BDE8304000F032BA74
S31500007DA003B030BD2C260300CA1603004826030084
S31500007DB064260300355503007C2603000B4B0C4953
S31500007DC01B6810B51B681B78652B0A4B0CBF01227C
S31500007DD000221A701C78084A084B0420002C08BFA1
S31500007DE01A46BDE8104000F00DBA00BF282C00204E
S31500007DF08E260300221A0020981303009013030016
S31500007E00FEF740BC13B50020FEF7BEFE0446012077
S31500007E10FEF7BAFE054B06491B88009182B2A1B255
S31500007E201846012300F020FF02B010BDF01A002012
S31500007E30397D00002DE9F047344D0FCD8EB009ACE9
S31500007E400FC42B6832492360042000F0DBF90026BA
S31500007E503446FDF737FBF5B285424CD2284605A9D4
S31500007E6022F008F8024600283FD19DF81430032B73
S31500007E7084BF04238DF814309DF81430002B38D0BD
S31500007E80042024492A4600F0DBF99DF814302249E3
S31500007E900EAA02EB8303042053F8142C00F0D0F949
S31500007EA028469DF821809DF815709DF818A0BDF80C
S31500007EB0169021F0D7FFCDF800A00290CDF80490DF
S31500007EC00420164942463B46013400F0B9F9042025
S31500007ED0E4B200F079F918B10DF1190000F0F8F8E4
S31500007EE004200F4900F08EF903E004200D4900F04C
S31500007EF089F90136ADE7FDF7E5FA0B490346224657
S31500007F00042000F07FF90EB0BDE8F08718260300C4
S31500007F10982603001C2103008B4A0300C526030094
S31500007F2035550300E62603000627030022F08EB926
S31500007F3008B50020FEF728FEBDE80840C0B2FDF7F0
S31500007F4011B90000084B1B681B685B78652B01D1D3
S31500007F50002006E06E2B01D1012002E0662B02D143
S31500007F60022001F07BBA7047282C0020054B1B68C5
S31500007F701B685B78A3F1660253425341024A1370B1
S31500007F80704700BF282C00201A1B002010B50020C7
S31500007F9086B0FEF7F9FD694604460120FEF74FFE5E
S31500007FA002A9102201230220FEF726FEE1B20020DC
S31500007FB06A4602AB0FF00AFD0446042000F004F9FD
S31500007FC018B105482146FCF795FC0420034900F04A
S31500007FD019F906B010BD00BF1D2703003555030073
S31500007FE07FB50020FEF7D0FD04460220FEF7CCFD4B
S31500007FF0C6B23046FFF7F0FCE4B20546E8B9012008
S315000080008DF80000FEF7C0FDADF8020003208DF8E4
S315000080100160FEF7B9FD0DF105018DF8040004209D
S31500008020FEF70DFE0FF0C1FD69468DF80D002046E6
S3150000803021F0A0FF0546FFF7BEFC042003492246B7
S315000080402B4600F0DFF804B070BD00BF66270300C2
S315000080502DE9F84380460F461646994600F0B4F8D7
S3150000806098B13E443D46EC1BB542A4B20DD0404605
S31500008070494615F8012B04F00F0400F0E1F8062C30
S31500008080F1D1404600F0B4F8EDE7BDE8F883000012
S3150000809030B5054C054D002B14BF2B462346BDE8D5
S315000080A03040FFF7D5BF00BF183203009627030004
S315000080B070B5054608460C46FFF75BFC611C82B2AC
S315000080C0024B2846BDE87040FFF7C2BF1B3A0300CB
S315000080D000B5024689B00C4B91791888D379009186
S315000080E05179019111790291D17803919178049196
S315000080F0517805911278069204493E2200F0A0F8C4
S3150000810009B05DF804FB00BF862000209A27030013
S315000081102DE9F04106460F4690460024B4421AD097
S315000081200E4D0F4B288807EBC4010822FFF790FF7E
S3150000813001342888B8F1000F05D10A4A0A4BB44227
S3150000814008BF1A4600E0084A084900F079F828886E
S3150000815000F04EF8E2E7BDE8F08100BF862000207F
S315000081609627030035550300332003008A4A03008F
S31500008170014600220220FFF7CBBF000070B50F4C6E
S315000081800646208800F020F8B0B100250123F2074A
S315000081900DD51BB920880A4900F052F820880949F4
S315000081A02A4600F04DF8208800F022F80023013519
S315000081B01B2D4FEA5606EAD170BD00BF862000206F
S315000081C06D090300093B03004FF6FF7290424FEA28
S315000081D0102307D043B9054B1B78184214BF012062
S315000081E0002070470120704700207047F21A0020D7
S315000081F008B5FFF7E9FF20B12020BDE808400BF0E5
S315000082001DB808BD0EB477B507AC054654F8046B27
S315000082100194FFF7D9FF50B131462246202005F0E0
S31500008220B2F82020044905F087F8044B1D8003B0FE
S31500008230BDE8704003B0704733200300862000205D
S315000082400EB477B507AC054654F8046B0194FFF7F6
S31500008250BBFF30B120203146224605F094F8034B8F
S315000082601D8003B0BDE8704003B070478620002033
S3150000827037B5002401200E4BA04080B253F824509D
S31500008280FFF7A2FF0B4B0C4A0C49002814BF1046FF
S315000082901846009022462B46202005F061F801344E
S315000082A020200AF0CBFF042CE4D103B030BD00BF80
S315000082B0FC270300BE270300BA270300C1270300DB
S315000082C00248FF210122FFF7BBBA00BFF21A0020C5
S315000082D0024800210122FFF7B3BA00BFF21A0020BC
S315000082E0430103F47F4200F0070001238340134457
S315000082F09BB21A0A01BF02490A7813430B707047F2
S31500008300F21A0020430103F47F4200F00700012324
S31500008310834013449BB21A0A01BF03490A7822EA32
S3150000832003030B70704700BFF21A002013B50368F1
S315000083300446587900F0AEFF78B923685A88032AB4
S315000083400BD05B790092E27C019201200849094A30
S31500008350FFF758FF2046012105E02046FEF7FAF810
S31500008360014610B1204601F082F9012002B010BD8D
S3150000837010280300901303002DE9F04F427D036897
S3150000838090F813908768868990F814B0B3F8028045
S31500008390002A89B00CBF40228022054658790492F3
S315000083A000F078FFC8B9B9F1000F16D0A9F10203A1
S315000083B0012B12D9B9F1050F0FD0B8F1030F0CD06C
S315000083C00120AB49FFF71EFF0220AA49AA4A4B46E5
S315000083D0FFF718FF284601213EE2EB7B1BB12A8AF4
S315000083E0002A00F03382A54A00211180697D002908
S315000083F092460CBF0820002013B140F00400C0B222
S31500008400FFF76CFAEB7B13B1288AFFF77BFAA87C9F
S315000084101FFA8BF4FFF762FAB9F1160F00F2168213
S31500008420DFE819F0170037019D00460074019D0032
S3150000843021017C01300184018C019401F400A80122
S31500008440140214021402BB01E601BB01FD01F40093
S31500008450A8010120FFF742FA631CB34280F2C581EE
S31500008460214632463846FFF77EFA2B688146587910
S315000084702B8A0093BAF80030C3F164039BB20193D0
S3150000848041464A46049BFDF7EEF870B92B685879C9
S315000084902B8A0093794B1B88C3F164039BB201932B
S315000084A041464A46049BFDF7ABFFA21C94B2D3E7B4
S315000084B00420FFF713FA00230593A31CB34242DA04
S315000084C0384621463246FFF74EFA3B19069093F896
S315000084D002B05846FDF710F938B1E01C3844FFF7F2
S315000084E048FA01305FFA80FA03E05846FDF7CCF807
S315000084F082465846FDF700F930B104EB0A026FF0E8
S3150000850002039B1ADE420FD42B68069A58792B8AEF
S315000085100093E31C3B440193CDF808B04146049B0D
S31500008520FDF7C6FE50B100E08020059B0133DBB2AB
S315000085300593FFF7D3F90698FFF7E4F90AF103026A
S31500008540224494B2B9E7059B002B40F04E81EB7BA9
S315000085502C7D002B494B14BF042202221A800420D2
S31500008560FFF7BCF94FF0000AD346E31C9E423BDD01
S315000085702146324638460693FFF7F5F93A19079031
S31500008580937805931846FDF7B7F8069B30B1F818AF
S31500008590FFF7EFF90130C3B2069303E00598FDF744
S315000085A073F806902B68079A58792B8A0093E31C78
S315000085B03B440193059B02934146049BFDF730FE25
S315000085C020B90AF101035FFA83FA08E00BF1010B07
S315000085D0FFF784F907985FFA8BFBFFF793F9069A82
S315000085E00332224494B2C0E7B9F1050F00F0368198
S315000085F0BBF1000F40F0F980BAF1000F02D1284616
S31500008600802129E15846FFF769F9EEE0B9F10C0F30
S315000086100CBF0D201620FFF761F938462146324679
S31500008620FFF7A1F95F44B9F1150F0246BC7802D1F4
S31500008630172C28BF172400200592BAF80060FFF710
S315000086404DF92B68059A58792B8A8DE81800A9F1FF
S3150000865015046342634102934146049BFDF7AEFC59
S31500008660074B9855C1E02846FDF7BAFF0DE000BF5D
S31500008670C12003003A280300901303005C2C00205D
S315000086806C2C00202846FDF7F8FF002800F0DE805D
S31500008690E4E0B8F10A0F07EB0B092BD1DFF8C8A10C
S315000086A09AF8003033B3EB7B23BBCBEB060BBBF165
S315000086B0080F1FD1384621463246FFF754F9C8B98C
S315000086C099F802B0BBF1000F14D199F80330E22BF0
S315000086D010D1211D89B232463846FFF741F900F024
S315000086E00BFD00F00BFD5F4902460220FFF78AFDF5
S315000086F08AF800B0321B4046494692B2FCF7C0FFEA
S31500008700002840F0AB8028460021A5E0321B4046F9
S3150000871007EB0B0192B2FDF7C3FFF1E7321B4046B0
S3150000872007EB0B0192B2FDF75DFFE9E7321B40460E
S3150000873007EB0B0192B2FDF7A2FFE1E7321B4046C1
S3150000874007EB0B0192B2FCF79DFFD9E70134A4B207
S315000087502B6817F80B603C5D5879049B00934146E3
S3150000876032462346FDF7E0FA404631462246FDF7FB
S315000087703BFF73E0A9F1160017F80B10621C434289
S3150000878092B24341B41A00310093404618BF01210A
S315000087903A44A3B2FDF72AFFB2E717F80B605F442D
S315000087A0B9F1110F7F7804D11220FFF797F8002056
S315000087B003E01420FFF792F80120BAF80040DFF832
S315000087C0AC900296C4F1630292B2631C8DE8040475
S315000087D04B44039729464246FDF7A6FBBAF80030FC
S315000087E009F804000133AAF8003000F0F1FE35E084
S315000087F017F80B20631C9BB20032A6EB030618BFCA
S315000088000122B6B20021C8B2B04201F10101FAD389
S31500008810298A009640463B44FDF7ECFE70E717F8C0
S315000088200B20631C9BB20032A6EB030618BF012285
S31500008830B6B20021C8B2B04201F10101FAD3298AC9
S31500008840009640463B44FDF7D3FE59E7EB7B002BF1
S31500008850284614BF8421822100F009FF012009B0B7
S31500008860BDE8F08F56280300882000206C2C0020DD
S3150000887082B2064B0AB94BF6EF621A80000C044B23
S315000088800ABF4FF6CE2218801A807047F41A0020CD
S31500008890F61A0020094B1888020448BF80F06200CF
S315000088A042001A80064A1388190444BF83F4805391
S315000088B083F00B035900118058407047F41A0020CA
S315000088C0F61A0020034B1870034B1970034B002255
S315000088D01A7070478B200020892000208A200020F3
S315000088E02DE9F74F234D244B2A781C7806460F4670
S315000088F09846002A3BD04FF6FB73984203D91F488F
S31500008900492103F055FC4FF0000A2B78DFF870B0D0
S315000089105FFA8AF94B4510D99BF800004844C0B26B
S3150000892069461CF009FA684639460822FEF78FFFA9
S315000089300AF1010A0028E8D14C4698F800300E4AA0
S31500008940A34207D1631C2978DBB29942137004BF96
S31500008950002313709BF800301C44E4B220463946CD
S315000089601CF03CFB18B9204631461CF0B3F903B0A5
S31500008970BDE8F08F892000208A2000206E280300A1
S315000089808B20002008B513F009FD30B101200D49F8
S315000089900D4ABDE80840FFF735BC0C4B0C4A1B6876
S315000089A01B6819780B4B6C290CBF1146194601231D
S315000089B01022FEF721F902200749BDE80840FFF71B
S315000089C021BC00BF8A28030070090300282C002060
S315000089D0081B0020F81A0020A0280300F0B507465F
S315000089E08BB018B9FCF76CFD064600E001260220A4
S315000089F02149FFF707FC00252C46B44239D237B18E
S31500008A00012069460CF058FD68B3FE2428E0204694
S31500008A1069460EF0D7FF18BB012018492246FFF71A
S31500008A200FFC0120FFF7D0FB18B10DF11D00FFF779
S31500008A304FFB069A12490120FFF702FCBDF80030F1
S31500008A40104913F0100F4FF0010014BF79226E2267
S31500008A50FFF7F6FB0DF10300FFF78AFB0135EDB2D8
S31500008A600134E4B2C9E701200749FFF7E9FBFE2418
S31500008A70D7E728460BB0F0BDA8280300F32803006B
S31500008A80DD280300E5280300FB28030000B58BB0B2
S31500008A90012069460CF010FD08B9059801E04FF079
S31500008AA0FF300BB05DF804FB10B58AB003206946B1
S31500008AB00CF002FD20B16846FF212822FEF7C0FE19
S31500008AC0059B1C491C4A0120FFF79CFB9DF81C30A6
S31500008AD01A49194A0120FFF795FB1949164A012040
S31500008AE0FFF7AEFB0DF10300FFF742FBFFF7CEFFEA
S31500008AF01049144A03460120FFF784FB1249114A24
S31500008B000120FFF77FFB0120FFF768FF0F490D4AA1
S31500008B100120FFF777FB0020FFF760FF0446FCF714
S31500008B20CFFC0B49034622460120FFF76BFB0AB038
S31500008B3010BD00BF022903001129030019290300F3
S31500008B40212E0300DE5503002A29030030290300E5
S31500008B503929030010B50020FEF716F8041C18BFCB
S31500008B600124204616F032FD054B064A0649002C24
S31500008B7008BF1A460120BDE81040FFF743BB00BFFF
S31500008B80522903004D2903005B29030008B5002084
S31500008B90FDF7FAFF044B05491880024692B2012000
S31500008BA0BDE80840FFF72EBB121F00209C290300DA
S31500008BB010B5012404704FF6FB74A1429CBF6FEA06
S31500008BC043436FEA53430381426008210348FEF79B
S31500008BD00EFF0420BDE81040FDF7F6BCD02C0020A7
S31500008BE030B585B00446FEF7DFFE0C20114B60431E
S31500008BF000241D181C541048FEF7F6FE0420FDF74D
S31500008C0047FD6A6892B12B89039413F4004FC3F3AE
S31500008C100E0314BF02212146ADF806304FF6FF734E
S31500008C208DF80410ADF8083001A89047FEF7C3FE92
S31500008C3005B030BD8C200020D02C002038B504466D
S31500008C40436808460D469847B4F90830002B02DB06
S31500008C502B78042B07D1002363600EF0A6FFBDE836
S31500008C603840FFF7BDBF38BD2DE9F8431C46054621
S31500008C70894690460EF099FF0C26104F4643BB5D81
S31500008C80ABB94FF6FD734FF6FB72954288BF1D4692
S31500008C90284623464946424600F080F9044648B92C
S31500008CA0B8192946089A0623FFF782FF02E07020CA
S31500008CB0BDE8F8832046BDE8F88300BF8C2000207D
S31500008CC0F8B5164605460C460EF06FFF0C230C4A07
S31500008CD058431718135C73B9214628464FF482523D
S31500008CE002F070F8044640B9384629463246042355
S31500008CF0FFF75EFF01E07020F8BD2046F8BD00BF1B
S31500008D008C200020F8B50E4605460EF04EFF0C23CB
S31500008D100B4A58431718115C69B928460A4640237E
S31500008D201BF0A8FE044640B93846294632460123C0
S31500008D30FFF73EFF01E07020F8BD2046F8BD00BFFA
S31500008D408C20002070B50D4604460EF02EFF0C2335
S31500008D500B4A58431618115C69B920460A461BF09F
S31500008D6043FF044648B930464FF6FC712A4623466F
S31500008D70FFF71EFF01E0702070BD204670BD00BFEA
S31500008D808C2000200020FFF72BBF00002DE9F047C4
S31500008D909CB014461D468A460EF007FF0C237E4AF9
S31500008DA043438046D65CD7189146002E00F0F080EB
S31500008DB0BAF80010002940F0EA803A89BAF8023081
S31500008DC042F40040834240F0E0806178002940F0A0
S31500008DD0DF80A3F50043062B00F2D980DFE813F00D
S31500008DE096009600D700D7000700B6007000E1791C
S31500008DF0A379E07A8DF80C0003EB0123ADF81C3063
S31500008E00617A237A03EB0123811D0D3DADF81E30F7
S31500008E1014F811E063798DF8203015F001058DF80E
S31500008E2014E040F0B5800DF1240CCDF810C004F12B
S31500008E300C082B465FFA83F9814508F1020809D22E
S31500008E4018F801AC18F8029C09EB0A292CF81390C3
S31500008E500133EFE74B0001330CEB400103F0FF0356
S31500008E6006915FFA85FC0CEB0001F445C9B211D2FC
S31500008E700DF1700C0CEB410104EB030C01359CF871
S31500008E80018014F803C002330CEB082C21F84CCCFB
S31500008E90DBB2E6E712F4004F14BF03230123E178A7
S31500008EA08DF80030A37803EB0123ADF80430C2F34C
S31500008EB00E0203ABADF8022002933846694622E063
S31500008EC0042D65D92079A178E378053DADB2A84295
S31500008ED05ED100285CD012F4004F01EB03238DF81D
S31500008EE00C0004F1050414BF03200120C2F30E0296
S31500008EF0ADF8283003AB04948DF82400ADF8262095
S31500008F000B93384609A9FFF799FE41E00B2D3FD98F
S31500008F1003AD0822A11C2846FEF738FC0C2303FBF0
S31500008F200898E17AB8F808300B9513F4004F14BF8F
S31500008F30032204228DF82420A27AC3F30E0302EB47
S31500008F400122ADF82820ADF82630DAE7042D1FD926
S31500008F50E178A37803EB01232179ADF828304B1D86
S31500008F60DBB2AB4214D112F4004F14BF032301232A
S31500008F708DF82430C2F30E0203AB0534ADF826207B
S31500008F800B9304948DF80C10BBE70E4600E0002608
S31500008F9030461CB0BDE8F0878C2000202DE9F34157
S31500008FA0064601200D4690461F4613F089FEFF280F
S31500008FB0044619D0022113F07DFE424620460021C8
S31500008FC014F0CBF8002F4FF4825300932946304615
S31500008FD013BF2246FF222346FF2301F08FFF0546DB
S31500008FE0204613F093FE00E01825284602B0BDE89F
S31500008FF0F08100002C4B70B5B0FBF3F403FB1400BA
S315000090002A4B4FF46165B0FBF5F5EDB203FB0502A3
S315000090103C23B2FBF3F3DBB2A0EB05104B71C3EBC1
S315000090200313A0EB83038B714FF4FA630B800123C8
S315000090300D718B70CB700025A54234D08A780BB1A8
S31500009040022A04D01A48104410F8016C00E01D26CC
S31500009050C878864201BF01328A700122CA708A78B6
S315000090601CBF0130C8700D2A1BD10B88013398B282
S3150000907082074FF0010308808B7011D16426B0FB84
S31500009080F6F206FB120292B25AB94FF4C873B0FB5D
S31500009090F3F203FB12039BB2B3FA83F35B0900E01E
S315000090A000230135C8E770BD80510100F0F1FFFFD4
S315000090B0EA29030010B588B006A90446FFF79AFF0F
S315000090C00B4BBDF81810188800919DF81C100191E3
S315000090D09DF81D1002919DF81E1003919DF81A200F
S315000090E09DF81B3004940349FFF78CF808B010BDB7
S315000090F086200020332A0300FDF7CFBAFDF782BA97
S3150000910010B50268174B118819805188598051791A
S315000091101971117959714FF48251D980D188890614
S3150000912044BF4FF48351D980D2888169520642BF29
S31500009130DA8842F04002DA800B4B39B90B4AC18813
S3150000914011801A7822F002021A7010BD1A78084CA3
S3150000915042F002021A7020461622FEF717FB002381
S31500009160237010BD5E2C0020C12000206A2C002038
S31500009170C620002038B53C4C23685879FCF740FCE3
S31500009180FF2825460FD1236838495A88E37C0220F8
S31500009190FFF756F802203649FFF752F8236835499B
S315000091A05A79022051E0344B03EB0010237F027BF7
S315000091B09A4211D023682D495A88E37C0220FFF792
S315000091C03FF823682D495A792D4B0220FFF738F8CE
S315000091D002202C49227F38E02368428819888A4277
S315000091E017D04FF6FF70814201D1120411D55A886B
S315000091F01E49EB7C0220FFF723F82B681F495A799A
S31500009200214B0220FFF71CF82B6820491A88022000
S315000092101BE02A79144C023A012A1AD8587919897E
S31500009220FDF7EAF9A8B9236810495A88E37C0220B9
S31500009230FFF706F8236811495A79154B0220FEF705
S31500009240FFFF236811491A890220FEF7DBFF002081
S3150000925038BDAB7B04481BB1BDE83840FFF766B8A4
S31500009260BDE83840FFF788B8D82C0020C62D03008B
S31500009270E62D0300804D0300102C0020012E030074
S315000092807A4E0300093B0300262E03007A4C0300A6
S315000092909F13030008B5FCF7B3FB10B9024B18780F
S315000092A008BD002008BD00BFFC2C002008B500202A
S315000092B0FEF77AFBFF20FCF711FDFEF77CFBFCF7BF
S315000092C00BFA012182B20D48FEF7BAFA0C4B0D4893
S315000092D00D4A6421FDF7F2FAFBF788F802F021F94E
S315000092E002F07CFC02F04EFF08F08EFC08F094FDC4
S315000092F009F03EF8BDE80840FCF7CEBDFC2C002086
S315000093005E2C00206C2C00205C2C0020704708B5D9
S3150000931014F054FD20B913F041F808B9FDF75BF9D4
S31500009320FDF7AFF9BDE80840FDF7B9B910B5002261
S3150000933091B2074B33F831304FF6FF74A34204D095
S31500009340834202F10102F3D10B46184610BD00BF5D
S31500009350702F030038B50546FFF7E8FF4FF6FF7399
S31500009360984218BF094B0A4C07BF0A4920880A4988
S3150000937003EBC0030EBF2A4620885A68FEF760FF3B
S315000093802088BDE83840FEF733BF00BF702F0300CA
S31500009390862000202E2E0300D84F030073B51546F5
S315000093A0089C2E7816F0040F14BF05260326B34238
S315000093B01A4607D2042000961B491C4AFEF722FFD4
S315000093C000202EE0BDF8183020602171E380A560F2
S315000093D0A2812B7803F00103A3732B78C3F38003D8
S315000093E0E3732978C1F3C0016175012121753BB191
S315000093F02846FEF7B8FA237D20820233237500E063
S315000094002382237D5A1CD2B22275E95CA1740233F1
S315000094102375AB5CE374079BA3610EF0C6FB207754
S31500009420012002B070BD00BF462E03007009030084
S31500009430034B18780130C0B2187000F07F007047F7
S31500009440181B0020044B1A7810B142F0010201E00B
S3150000945022F001021A707047C1200020014B1870DB
S31500009460704700BFC420002068B1074B1B78012B52
S3150000947003D1038843F0400304E0022B03D10388A1
S3150000948023F0400303807047C420002068B1074AD8
S315000094901378012B03D1064B1B78137001E0022BC6
S315000094A003D1037843F0100303707047C3200020F4
S315000094B0C2200020F0B5374B1A7812F0010F85B0A4
S315000094C006461C4605D002203349FEF79BFE0020C7
S315000094D05DE0324D2F4F2846FFF7D8FF3048FFF7A3
S315000094E0C3FF2B7813F0040F2E4B1B7814BFEB70C1
S315000094F06B70237803F002032A4603F0FF002A4D1F
S315000095005BB12A482988254A08F0FAFD3B7823F002
S31500009510020304463B70492617E0254B19884FF68F
S31500009520FB73994208D82B888DE84400214AFBF743
S3150000953041F95526044608E02A88184B0096084645
S315000095401C49FBF71BF942260446FFF7D7FD194BCA
